:020000040800F2
:1000000000000120C5020008CD020008D10200084E
:1000100045030008490300089103000800000000A0
:10002000000000000000000000000000D9030008EC
:10003000DD03000800000000E1030008E5030008FC
:10004000F5030008F5030008F5030008F5030008B0
:10005000F5030008F5030008F5030008F5030008A0
:10006000F5030008F5030008F5030008D90D0008A2
:10007000E90D0008F90D0008090E0008190E000826
:10008000290E0008390E0008F503000800000000E2
:10009000000000000000000000000000F503000860
:1000A000F5030008F5030008F5030008F503000850
:1000B000F5030008F5030008F5030008F503000840
:1000C000F5030008F5030008F5030008F503000830
:1000D000F503000859130008F503000800000000AC
:1000E000F5030008F5030008F50300080000000010
:1000F000000000000000000000000000490E0008A1
:1001000000000000F5030008F5030008F5030008EF
:1001100000000000000000000000000000000000DF
:10012000590E0008690E0008790E0008890E0008B3
:10013000990E000800000000000000000000000010
:10014000000000000000000000000000F5030008AF
:10015000A90E0008B90E0008C90E0008F503000832
:10016000F5030008F503000800000000000000008F
:10017000000000000000000000000000000000007F
:1001800000000000F503000800000000000000006F
:10019000F503000800B583B000F0BCF9384B394ACC
:1001A0001360394A136039490CE00A684B6801F161
:1001B0000C04886803E01168196004330432984223
:1001C000F9D82146324B9942EFD32E4B1A68314B66
:1001D0009A4204D12C4B1A682F4B9A4200D0FEE76A
:1001E000274B2E4A13602E4A13602E4B0AE0194605
:1001F00051F8082B5B6802E00020106004329A423C
:10020000FAD30B46284A9342F1D3244B1B6813B907
:10021000234B1B6803B1FEE700F088F9694601A88B
:1002200000F022F9214C224B1C1BA410002504E0F5
:100230001E4B53F8253098470135AC42F8DC1D4C75
:100240001D4B1C1BA410002504E01A4B53F825304D
:1002500098470135AC42F8DC0099019801F0CAF8E2
:100260000546164C164B1C1BA41004E0013C134B16
:1002700053F824309847002CF8DC284600F0D0F8DA
:10028000BABADECA0000002078000020F803000897
:100290001004000878563412325476987C000020FE
:1002A000B4410020100400082004000820040008C5
:1002B000200400082004000820040008200400088E
:1002C0002004000808B5FFF765FF00BF00BEFEE789
:1002D0001EF0040F0CBFEFF30880EFF309807146A6
:1002E000414A10472DE9F04182B004468846134B3D
:1002F0005E6B9F6B9D6A1B6B13F0020F0DD00F4B53
:10030000DB6A002B09DA4BF6AB6100F08BF920B108
:100310004FF00042094BDA620CE0094800F0ACF8FB
:10032000CDF800803B4632462946204600F002F9CF
:1003300000BEFEE702B0BDE8F08100BF00ED00E0C6
:10034000A41E000800BEFEE71EF0040F0CBFEFF372
:100350000880EFF309807146244A10472DE9F041E7
:1003600082B004468846084B5E6B9F6B9D6A0748C7
:1003700000F082F8CDF800803B4632462946204600
:1003800000F0D8F800BEFEE700ED00E0B41E000863
:100390001EF0040F0CBFEFF30880EFF309807146E5
:1003A000134A10472DE9F04182B004468846084BB5
:1003B0005E6B9F6B9D6A074800F05EF8CDF8008089
:1003C0003B4632462946204600F0B4F800BEFEE720
:1003D00000ED00E0C01E000800BEFEE700BEFEE724
:1003E00000BEFEE770470000E50200085D0300085C
:0803F000A503000800BEFEE7B2
:1003F800D41F0008000000207C000020D41F000843
:1004080000000010000000107C000020B84100200F
:080418000000001000000010BC
:10042000FEE700BF08B50D4B1B6813B90C4A0B4B18
:100430001A600A4B1A68C31C23F0030313440949CA
:100440008B4206D901F010F80C2303604FF0FF3007
:1004500008BD02490B60104608BD00BF80000020A7
:10046000B841002000FC002001230360014B0B6019
:10047000704700BF040000200FB400B583B004AB88
:1004800053F8042B01938021064801F01FF800283F
:1004900003DD0146034800F039F803B05DF804EBD2
:1004A00004B07047880000202DE9F04385B0044671
:1004B0000F46435613BB042528462146ABBE0446CF
:1004C0001FE03546102E28BF1025002306E014F942
:1004D000011B04AA1A4402F8101C0133AB42F6D3E4
:1004E00004AA1344002203F8102CE9464FF0040834
:1004F00040464946ABBE8046761B00E00E46002EC5
:10050000DFD1384605B0BDE8F08300BF08B5FFF77E
:10051000CBFF08BD08B500F095F8024B024A9A607F
:1005200008BD00BF00ED00E00000000808B500F0C5
:10053000A9F808BDF8B504460D4617461E462648DC
:10054000FFF79AFF21682548FFF796FF6168244866
:10055000FFF792FFA1682348FFF78EFFE16822486A
:10056000FFF78AFF21692148FFF786FF616920486C
:10057000FFF782FFA1691F48FFF77EFFE1691E4870
:10058000FFF77AFF1D48FFF777FF29461C48FFF762
:1005900073FF1C4CE16A1C48FFF76EFF216B1B4880
:1005A000FFF76AFFE16B1A48FFF766FF15F0800F4F
:1005B00003D039461748FFF75FFF15F4004F03D00B
:1005C00031461548FFF758FF1448FFF755FF0699C5
:1005D0001348FFF751FFF8BD881D0008981D00085B
:1005E000A81D0008B81D0008C81D0008D81D000877
:1005F000E81D0008F81D0008081E0008181E000865
:10060000241E000800ED00E0341E0008441E00080F
:10061000541E0008641E0008741E0008841E000892
:100620008C1E000883691A888A4207D10268033A3F
:10063000012A05D8023383610120704700207047EA
:10064000002070470C4B1A6842F001021A6000212A
:1006500099601A6822F0847222F480321A60074A84
:100660005A601A6822F480221A60D9604FF0006242
:10067000034B9A60704700BF0038024010300024DE
:1006800000ED00E0224B9B6803F00C03042B07D025
:10069000082B09D0002B2DD11E4A1F4B1A602CE0CD
:1006A0001E4A1D4B1A6028E0194B5A685B6803F01C
:1006B0003F0312F4800F09D0184AB2FBF3F2144B37
:1006C0005B68C3F3881303FB02F208E0114AB2FB34
:1006D000F3F30F4A5168C1F3881101FB03F20C4B8D
:1006E0005B68C3F3014301335B00B2FBF3F30A4AD7
:1006F000136002E0074A084B1A60054B9B68C3F37E
:100700000313074AD15C044A1368CB401360704757
:10071000003802400024F4000C00002040787D01E5
:10072000D01E00080122014B1A70704708010020FA
:10073000C378827843EA0223427843EA024302788C
:1007400043EA02630B60704710B4C04344E04C1CA2
:100750000A78504010F0010F03D0224A82EA50007C
:1007600000E0400810F0010F03D01E4A82EA50005A
:1007700000E0400810F0010F03D01A4A82EA50004E
:1007800000E0400810F0010F03D0164A82EA500042
:1007900000E0400810F0010F03D0124A82EA500036
:1007A00000E0400810F0010F03D00E4A82EA50002A
:1007B00000E0400810F0010F03D00A4A82EA50001E
:1007C00000E0400810F0010F03D0064A82EA500012
:1007D00000E040081A462146531E002AB7D1C04304
:1007E00010BC70472083B8ED08B5022000F08CFBE8
:1007F000032000F089FB042000F086FB052000F0B8
:1008000083FB08BD70B50646002418E00D490B5D5A
:10081000621C8A5C43EA0223A21C8A5C43EA02430C
:10082000E21C8A5C084D43EA0262002329684FF407
:10083000007000F095FB2B6804332B600434B44245
:10084000E4D370BD4C0100201001002038B5012018
:1008500000F05AFB0B4D00242A6823460A494FF446
:10086000007000F07DFBAA68234608494FF4007031
:1008700000F076FB6A68234605494FF4007000F0EB
:100880006FFB38BDA4410020004000080440000870
:100890000840000808B5044B19781031C9B2034864
:1008A00000F0F6FC08BD00BF140100201801002074
:1008B00008B57F21014800F0EBFC08BD18010020BD
:1008C000F0B587B02B4800F031FC012000F02EFC81
:1008D000022000F02BFC01258DF81450264C0494C6
:1008E00005268DF816608DF8155004A800F08AFBD7
:1008F0002A463146204600F0C9FB02268DF80C60DE
:10090000A4F58064029409278DF80E708DF80D50BF
:1009100002A800F077FB07223946204600F0D2FB00
:100920008DF8046000940A268DF806608DF8055055
:10093000684600F067FB07223146204600F0C2FB04
:100940000E4C4FF4165363610D4B23600C23636010
:1009500000232361E360A36084F83050204600F058
:1009600023FC252000F0D0FB0649204600F0D6FCF1
:1009700007B0F0BD100000C00004024018010020C4
:10098000001001402507000870B582B0A04B1B780D
:10099000103B272B00F20382DFE813F0280001024E
:1009A000010201020102010201020102010201022F
:1009B000010201020102010201020102010201021F
:1009C000010201020102010201020102010201020F
:1009D00001020102010201020102010201026C0195
:1009E0000102010277000102DF00C701894B1B7879
:1009F0006BB9894AD268B2F1FF3F08D10122874919
:100A0000874800F065FC0122824B1A70C7E1ABB940
:100A1000814AD268B2F1553F10D11022814B1A7031
:100A2000FFF738FF0023804A13707A4A137034228C
:100A3000774B1A70012000F067FAB0E1012B40F00B
:100A4000AE81794B1B78012B40F0A9810023764AB7
:100A50001370704A1370714B1B78102B07D1714AB9
:100A60001370FFF717FF3422694B1A7097E16F4834
:100A7000FFF702FDFFF71CFF1022654B1A700023E1
:100A8000694A1370634A137089E1624B1B7843B95A
:100A900001226249624800F01BFC01225D4B1A7082
:100AA0007DE1012B23D1604A1278012A1FD1002257
:100AB0005D4B1A70594B1B78342B0CD1574C0C22C0
:100AC0002146574800F004FC2278564B1A70022247
:100AD000504B1A7063E100224E4B1A705448FFF7D6
:100AE000CBFCFFF7E5FE1022494B1A7057E1022BB1
:100AF00040F055814C4B1B78012B40F05081FFF7A3
:100B0000C9FE484B19784B48FFF7B6FC0023414A11
:100B10001370454A1370484C404D21462846FFF754
:100B200007FE211F281DFFF703FEA4F1080631462A
:100B300005F10800FFF7FCFD54F8041C3F4B196059
:100B400054F8082C3E4B1A603E48FFF795FCFFF71F
:100B50004BFE36222E4B1A7021E12E4B1B78002BB8
:100B600032D12E4C21462E4800F0A8FB2378362B9C
:100B70001ED1324B1A68531EB3F5806F07D221463F
:100B8000274800F0A5FB3048FFF776FC05E04FF45E
:100B900080622249224800F09BFB204B1A78214BAF
:100BA0001A7002221B4B1A7000221F4B1A70F6E0BB
:100BB000FFF77EFE1022164B1A700022154B1A709A
:100BC0002248FFF759FCEAE0022B40F0E880164B80
:100BD0001B78012B40F0E3800023134A13700D4A69
:100BE0001370164B1B68013BB3F5806F32D2184867
:100BF000FFF742FC114B1868FFF704FEFFF74AFEAF
:100C00003122034B1A700022024B1A70C7E000BF5A
:100C10001000002015010020004000084C010020B9
:100C2000180100201401002008010020E01E000827
:100C3000EC1E00089C1F0008AC4100200C010020A5
:100C400010010020F81E0008041F0008181F0008EB
:100C5000241F00084FF48060FFF7D4FD514C236837
:100C6000A3F580632360FFF715FE21684E48FFF768
:100C700003FC94E04D4B1B7843B901224C494D488D
:100C800000F026FB0122494B1A7088E0012B25D188
:100C9000494A1278012A21D10022474B1A70444B4D
:100CA0001B78312B0ED14548FFF7E6FB40490A7807
:100CB000434B1A7004223F4800F00AFB02223B4BD0
:100CC0001A706CE00022394B1A703E48FFF7D4FBD3
:100CD000FFF7EEFD10223C4B1A7060E0022B5ED154
:100CE000354B1B78012B5AD13848FFF7C5FB002440
:100CF0002E4B1C70304B1C7001A92D48FFF718FDBE
:100D0000334B5A6819682046FFF71EFD019B984235
:100D100005D1FFF7BFFD37222B4B1A703FE0294862
:100D2000FFF7AAFBFFF7C4FD39E0204B1B7843B95E
:100D300001221F491F4800F0CBFA01221B4B1A70F9
:100D40002DE0012B2BD11C4B1B78012B27D100232D
:100D5000194A1370154A1370154B1B78372B11D194
:100D6000174A13703822184B1A70FFF793FDFFF7DC
:100D70006DFD41F2883300E0013B002BFCD100F017
:100D8000FFF90CE0FFF794FD1248FFF775FB102206
:100D90000D4B1A700023084A1370044A137002B0F6
:100DA00070BD00BF0C010020301F0008150100209D
:100DB0004C0100201801002008010020441F0008F9
:100DC00014010020501F000810000020581F0008C8
:100DD000A4410020601F000808B5024B1B6803B146
:100DE000984708BD5041002008B5024B5B6803B12D
:100DF000984708BD5041002008B5024B9B6803B1DD
:100E0000984708BD5041002008B5024BDB6803B18C
:100E1000984708BD5041002008B5024B1B6903B13B
:100E2000984708BD5041002008B5024B5B6903B1EB
:100E3000984708BD5041002008B5024B9B6903B19B
:100E4000984708BD5041002008B5024BDB6903B14B
:100E5000984708BD5041002008B5024B1B6A03B1FA
:100E6000984708BD5041002008B5024B5B6A03B1AA
:100E7000984708BD5041002008B5024B9B6A03B15A
:100E8000984708BD5041002008B5024BDB6A03B10A
:100E9000984708BD5041002008B5024B1B6B03B1B9
:100EA000984708BD5041002008B5024B5B6B03B169
:100EB000984708BD5041002008B5024B9B6B03B119
:100EC000984708BD5041002008B5024BDB6B03B1C9
:100ED000984708BD50410020044A136923F4407329
:100EE000184340F001001061704700BF003C024011
:100EF000034B044A5A6002F188325A60704700BFBF
:100F0000003C024023016745052821D8134BDB68CC
:100F100013F4803F1ED1114A136923F0780343EA8A
:100F2000C00343F4803343F002031361322301E032
:100F3000013BDBB2094AD26812F4803F01D0002B9A
:100F4000F6D1064BDB6813F4803F05D100207047D3
:100F5000012070470120704701207047003C02408B
:100F6000F8B51F4601F1774303F57C03234DAB42EF
:100F70003DD9234BDB6813F4803F3AD114463D46FC
:100F80000E46B0F5807F0FD001D838B117E0B0F52C
:100F9000007F0FD0B0F5407F14D010E0FFF79CFF2A
:100FA000E4B2347000200BE0FFF796FFA4B2348067
:100FB000002005E0FFF790FF3460002000E00120F2
:100FC000322307E0FFF788FFC6E900450020F7E776
:100FD000013BDBB20A4AD26812F4803F01D0002BF9
:100FE000F6D1074BDB6813F4803F04D1F8BD012034
:100FF000F8BD0120F8BD0120F8BD00BFFFFFFB7761
:10100000003C024000283DD030B403460568296802
:1010100082795200032000FA02F421EA04041979CB
:10102000014001FA02F222432A601C6861689A7941
:101030000125954021EA05051979C1F3800101FADE
:1010400002F22A4361680A4362601D68E9689A797E
:10105000520000FA02F421EA04041979C1F3C10133
:1010600001FA02F22243EA601D68AA6899794900F0
:1010700000FA01F422EA04045A7902FA01F3234344
:10108000AB6001E00020704730BC704790B10F2981
:1010900012D8012A12D832B1012A11D102FA01F173
:1010A0008161032070471031012202FA01F1816150
:1010B00003207047002070470120704702207047CE
:1010C000032070470F291BD810B407290BD8046AD6
:1010D00089000F238B4024EA030302FA01F119432C
:1010E000016203200EE0446A083989000F238B4017
:1010F00024EA030302FA01F119434162032001E0EB
:101100000120704710BC7047F0280AD8420900F04F
:101110001F00012303FA00F0034B43F822000320D1
:1011200070470120704700BF00E100E020F040431D
:1011300010F0404005D111490A6B13430B630C209A
:101140007047B0F1804F05D10C494A6B13434B6394
:101150000C207047B0F1004F05D108490A6C1343C9
:101160000B640C207047B0F1404F05D103494A6C25
:1011700013434B640C20704709207047003802402D
:10118000014A024B1A6070470400FA050CED00E0BA
:10119000034602681068002151601A68136823F042
:1011A00040031360704700BF002860D0034690F8EA
:1011B0003020012A5DD110B4002280F8302004686C
:1011C000E26822F4405121F00C0140681A69104392
:1011D0009A6802430A4342F40042E26018680269D6
:1011E00022F44051DA680A4302611868234A9042A7
:1011F00003D0A2F58062904216D15969C900204AF5
:10120000B2FBF1F41F4AB2FBF1F2642101FB14219D
:10121000C9001D4AA2FB01125209013202F0070265
:1012200042EA0412826018E0184A904215D15969C6
:10123000C900134AB2FBF1F4124AB2FBF1F2642185
:1012400001FB14210901104AA2FB011252090132CB
:1012500002F0070242EA041282601968CA6842F486
:101260000052CA60012283F83020002003E00220EF
:1012700070470320704710BC704700BF0014014046
:101280000024F40000105E5F1F85EB510044004015
:101290000368596041F2883300E0013B026811683D
:1012A00011F0400F01D1002BF7D1136813F0400F5C
:1012B00001D0002070470120704700BF03681A6802
:1012C00012F0200FFAD05B680B700020704700BF4F
:1012D0000346D0B100205862D962DA611A680C491D
:1012E0008A4208D00B4B9A4209D0A3F550439A4248
:1012F00005D0012004E008490B60002000E0002038
:10130000D36843F02003D36070470220704700BFCA
:1013100000100140001401409041002091B110B430
:1013200003680B4A934209D002F5806293420BD0C6
:10133000A2F55042934207D0012006E0054B196008
:10134000002002E002207047002010BC704700BF60
:10135000001001409441002038B5214B1A681368F1
:101360001C68DD6814F0400F1CD015F0400F19D038
:10137000116A906981420FD1012182F83010DA6838
:1013800022F04002DA60174B1B6803B19847144BF8
:101390001868FFF7FDFE05E0906A415C5960136A2A
:1013A0000133136214F0200F18D015F0200F15D060
:1013B0000B4B1B68D96A5A6A1868406888545A6A85
:1013C00001325A62D9698A4208D11A68D36823F077
:1013D0002003D360044B1B6803B1984738BD00BF9E
:1013E000904100208C41002094410020EFF30880C0
:1013F000704700BF10B51548FFF73EF8144B9B68C7
:10140000B3F1FF3F09D11348FFF736F8FFF770FD3E
:10141000FFF756FAFFF7B8FAFCE70F48FFF72CF88A
:101420000B4B1B685C6874B10E4D85F30888FFF7A1
:10143000DDFF01460948FFF71FF800220521084893
:10144000FFF724FEA047002010BD00BF681F000862
:1014500000400008741F0008881F0008941F00083F
:101460000004024000000120014B1868704700BFD3
:101470007400002030B5141E05469BB0184604DAEF
:101480008B232B604FF0FF301DE04FF40273ADF85B
:101490000C3014BF04F1FF332346029305934FF63B
:1014A000FF7300910491ADF80E3002461E9B694611
:1014B000284600F073F8431CBCBF8B232B6014B18B
:1014C000009B00221A701BB030BD000007B50093CE
:1014D00013460A46014603480068FFF7CBFF03B0F6
:1014E0005DF804FB740000202DE9F0478E689E42F1
:1014F00082460C46914698463ED88A8912F4906FEF
:101500003AD0256809696F1A6569022305EB45051C
:1015100095FBF3F57B1C43449D4238BF1D465305A4
:101520000FD5294600F090FB064698B13A4621694E
:1015300000F016FBA38923F4906343F08003A3819A
:1015400013E02A4600F0DEFB064670B921695046DA
:1015500000F02CFB0C23CAF80030A38943F04003B1
:10156000A3814FF0FF30BDE8F087266165613E44FE
:10157000ED1B2660A5604646464528BF46463246D6
:101580004946206800F0F7FAA3689B1BA360236814
:101590001E4426600020BDE8F08700002DE9F04FD2
:1015A0009DB0804603938B891C060D4616460DD5CB
:1015B0000B695BB9402100F047FB2860286118B92E
:1015C0000C23C8F80030CDE040236B610023099361
:1015D00020238DF82930DFF89CB130238DF82A3094
:1015E00037463C4614F8013B1BB9B7EB060910D04F
:1015F00003E0252BF9D02746F3E74B463246294630
:101600004046FFF771FF013000F0A780099B4B4473
:1016100009933B78002B00F0A08000234FF0FF32AD
:1016200004930793059206938DF853301A9301267D
:10163000052221784E4800F043FA671C049B38B11C
:101640004B4A801A06FA00F0184304903C46EFE734
:10165000D90644BF20228DF853201A0744BF2B22FD
:101660008DF8532022782A2A03D0079A00210A20D5
:101670000BE0039A111D12680391002A10DA5242FE
:1016800043F00200079204900BE0274601343B78B8
:10169000303B092B03D800FB02320121F5E701B1F1
:1016A00007923B782E2B1ED17B782A2B0AD1039BE5
:1016B0001A1D1B680392002BB8BF4FF0FF3302378F
:1016C000059310E000230593781C19460A24074669
:1016D00001303A78303A092A03D804FB012101236A
:1016E000F5E703B1059103223978224800F0E8F9C3
:1016F00040B14023CBEB000003FA00F0049B1843F9
:101700000490013739781C488DF8281006227E1C79
:1017100000F0D6F988B1194B33B9039B073323F096
:1017200007030833039314E003AB00932A46144BDA
:1017300004A94046AFF3008007E003AB00932A46BC
:101740000F4B04A9404600F093F8B0F1FF3F8246EA
:1017500003D0099B5344099342E7AB895B0601D44C
:10176000099801E04FF0FF301DB0BDE8F08F00BFD9
:10177000A01F0008A61F0008AA1F00080000000004
:10178000E91400082DE9F04791461F460A698B6865
:10179000DDF820809342B8BF1346C9F8003091F8B5
:1017A000432006460C4612B10133C9F800302368C5
:1017B000990642BFD9F800300233C9F800302568D5
:1017C00015F0060510D104F1190A07E0012352466D
:1017D00039463046C04701301AD00135E368D9F8A0
:1017E00000209B1A9D42F1DB94F8433022680033BD
:1017F00018BF012392060FD5E1185A1C302081F83A
:101800004300224494F8451082F84310023303E069
:101810004FF0FF30BDE8F08704F14302394630460F
:10182000C0470130F4D02268D9F80050E36802F0D4
:101830000602042A08BF5D1B2269A3680CBF25EAC3
:10184000E57500259342C4BF9B1AED184FF00009BF
:101850001A344D4509D00123224639463046C04747
:101860000130D5D009F10109F3E70020BDE8F08788
:101870002DE9F04317460A7E85B06E2A9846064643
:101880000C460C9B01F1430E00F0AE8011D8632A88
:1018900022D009D8002A00F0BB80582A40F0CA8024
:1018A00081F84520834955E0642A1ED0692A1CD05E
:1018B000C0E0732A00F0B08009D86F2A2ED0702AB9
:1018C00040F0B8800A6842F020020A603EE0752AC3
:1018D00024D0782A3AD0ADE01A6801F14205111DF2
:1018E0001960136884F84230A8E021681A6811F082
:1018F000800F02D0111D196008E011F0400F02F1B5
:101900000401196002D0B2F9003000E01368002B26
:101910003CDA2D225B4284F8432037E021681A68C4
:1019200011F0800F02D0111D196007E011F0400F77
:1019300002F10401196001D0138800E01368227ECF
:101940005C496F2A14BF0A2208221BE078225A49F8
:1019500084F845202268186812F0800F00F1040511
:101960001D6003D1550601D5038800E00368D00748
:1019700044BF42F0200222601BB9226822F02002FC
:1019800022601022002084F8430001E049490A2225
:101990006568A560002D08DB206820F00400206049
:1019A0002BB9002D7DD175460CE0002B79D0754602
:1019B000B3FBF2F002FB1033CB5C05F8013D0346AC
:1019C0000028F5D1082A0BD12368DA0708D5236946
:1019D00062689A42DEBF302305F8013C05F1FF350D
:1019E000C5EB0E0323612EE008681A68496910F000
:1019F000800F03D0101D1860136808E010F0400F2E
:101A000002F104001860136801D0198000E0196029
:101A100000232361754616E01A68111D19601568C8
:101A200062680021284600F04BF808B1401B606056
:101A3000636804E004F1420584F842200123236135
:101A4000002384F84330CDF800803B4603AA2146AA
:101A50003046FFF797FE013002D14FF0FF3026E00D
:101A600023692A4639463046C0470130F5D02368FD
:101A70009B0710D5002504F1190907E001234A4608
:101A800039463046C0470130E7D00135E368039A54
:101A90009B1A9D42F2DBE068039B9842B8BF184650
:101AA00005E00B7884F8423004F142058AE705B07E
:101AB000BDE8F083B11F0008C21F0008000000004D
:101AC00001F0FF01102A2BDB10F0070F08D010F8EF
:101AD000013B013A8B422DD010F0070F42B3F6D1F3
:101AE000F0B441EA012141EA014122F007047FF00C
:101AF00000070023F0E80256083C85EA010586EA63
:101B0000010685FA47F5A3FA87F586FA47F6A5FA9E
:101B100087F68EB9EED1F0BC01F0FF0102F00702AA
:101B200032B110F8013B013A83EA010313B1F8D155
:101B30000020704701387047002D06BF3546033836
:101B4000073815F0010F07D1013015F4807F02BF6F
:101B5000013015F4C03F0130F0BC0138704700BFC0
:101B600010B5431E0A44914204D011F8014B03F80A
:101B7000014FF8E710BD884210B501EB020301D810
:101B8000421E0BE09842FBD28118D21AD34204D0F5
:101B900013F8014D01F8014DF8E710BD994204D04A
:101BA00011F8014B02F8014FF8E710BD38B50546B2
:101BB000002946D051F8043C0C1F002BB8BFE41894
:101BC00000F0D6F81F4A1368114613B96360146019
:101BD00032E0A3420ED92268A018834204BF1868DD
:101BE0005B68636004BF121822600C6024E0A242AC
:101BF00003D813465A68002AF9D118681918A14267
:101C00000BD12168014458188242196014D1106820
:101C100052685A60014419600EE002D90C232B600F
:101C20000AE021686018824204BF1068526862604E
:101C300004BF091821605C602846BDE8384000F008
:101C400098B838BD9C41002070B5CD1C25F0030527
:101C500008350C2D38BF0C25002D064601DBA942A6
:101C600002D90C23336046E000F082F8234B1C6855
:101C70001A462146A1B10B685B1B0ED40B2B03D96E
:101C80000B60CC18CD501EE08C420DBF63684B68D2
:101C90006360136018BF0C4615E00C464968E9E71D
:101CA000174C23681BB9304600F052F820602946D3
:101CB000304600F04DF8431C18D0C41C24F0030437
:101CC000A0420DD12560304600F053F804F10B001E
:101CD000231D20F00700C31A0ED05A42E25070BDF7
:101CE000211A304600F034F80130EBD10C23336078
:101CF000304600F03EF8002070BD00BF9C4100203F
:101D000098410020F8B5074615460E4621B9114600
:101D1000BDE8F840FFF798BF1AB9FFF747FF28461C
:101D2000F8BD00F027F885420ED929463846FFF75E
:101D30008BFF044650B131462A46FFF711FF31466A
:101D40003846FFF733FF01E03046F8BD2046F8BDC6
:101D500038B5064C0023054608462360FEF762FBB3
:101D6000431C02D1236803B12B6038BDA041002081
:101D70007047704751F8040C0028BEBF091851F88D
:101D8000043CC01804387047537461636B2066725A
:101D9000616D653A0A000000205230203D20202568
:101DA0003038580A00000000205231203D20202504
:101DB0003038580A00000000205232203D202025F3
:101DC0003038580A00000000205233203D202025E2
:101DD0003038580A0000000020523132203D2025C2
:101DE0003038580A00000000204C52203D202025A9
:101DF0003038580A00000000205043203D202025A4
:101E00003038580A0000000020505352203D202551
:101E10003038580A000000004653522F4641523ACB
:101E20000A0000002043465352203D202025303830
:101E3000580A00002048465352203D2020253038C3
:101E4000580A00002044465352203D2020253038B7
:101E5000580A00002041465352203D2020253038AA
:101E6000580A0000204D4D464152203D2025303873
:101E7000580A00002042464152203D20202530389B
:101E8000580A00004D6973630A000000204C522F6D
:101E90004558435F52455455524E3D2025303858E1
:101EA0000A0000005B486172644661756C745D0AEB
:101EB000000000005B4275734661756C745D0A003A
:101EC0005B55736167654661756C745D0A0000005F
:101ED00000000000000000000102030406070809DA
:101EE0004E656753657373696F6E0A004E6567448C
:101EF0006F776E0A0000000053697A65203D202547
:101F0000640A0000496E7465727275707420656EA3
:101F100061626C65640A00005472616E734E65679D
:101F20000A0000004C6173744275666665720A00AF
:101F300052656D61696E696E6720256420627974EF
:101F400065730A004372435265715265730A00005B
:101F50004E65674352430A004372435265730A0059
:101F60004E45470A00000000526573746172740A9E
:101F700000000000456E74657220466C61736869EC
:101F80006E67205365630A0052756E204150500AF7
:101F9000000000004D7370203D20307825780A0045
:101FA000232D302B2000686C4C0065666745464742
:101FB00000303132333435363738394142434445C5
:101FC0004600303132333435363738396162636434
:031FD00065660043
:101FD4007856341284000020000000000024F4002D
:101FE40010FFFFFF000000000000000000000000E0
:101FF40000000000000000000000000000000000DD
:1020040000000000000000000000000000000000CC
:1020140000000000000000000000000000000000BC
:1020240000000000000000000000000000000000AC
:10203400000000000000000000000000000000009C
:0C204400000000001400002032547698C8
:040000050800019559
:00000001FF
