:020000040800F2
:1080000000000120B9830008E5810008D181000843
:10801000CD810008B9810008A5810008000000009A
:10802000000000000000000000000000A181000826
:108030009D81000800000000998100080186000869
:1080400095810008958100089581000895810008B8
:1080500095810008958100089581000895810008A8
:10806000958100089581000895810008BD8B000866
:10807000B98B0008B58B0008B18B0008AD8B0008E8
:10808000A98B0008A58B000895810008000000005E
:1080900000000000000000000000000095810008C2
:1080A0009581000895810008958100089581000858
:1080B0009581000895810008958100089581000848
:1080C0009581000895810008958100089581000838
:1080D000958100087985000895810008000000005E
:1080E0009581000895810008958100080000000036
:1080F000000000000000000000000000A18B00084C
:108100000000000095810008958100089581000815
:10811000000000000000000000000000000000005F
:108120009D8B0008998B0008958B0008918B0008A7
:108130008D8B00080000000000000000000000001F
:108140000000000000000000000000009581000811
:10815000898B0008858B0008818B000895810008B9
:1081600095810008958100080000000000000000D3
:1081700000000000000000000000000000000000FF
:1081800000000000958100080000000000000000D1
:108190009581000800BEFEE700BEFEE700BEFEE7D8
:1081A00000BEFEE71EF0040F0CBFEFF30880EFF3F4
:1081B00009807146824A10471EF0040F0CBFEFF38E
:1081C0000880EFF3098071467E4A104700BEFEE743
:1081D0001EF0040F0CBFEFF30880EFF30980714627
:1081E000794A104700BEFEE780B582B00446884653
:1081F000084B5E6B9F6B9D6A074800F0FFFECDF851
:1082000000803B4632462946204601F023F900BE55
:10821000FEE700BF00ED00E000A0000880B582B0DE
:1082200004468846084B5E6B9F6B9D6A074800F0CA
:10823000E5FECDF800803B4632462946204601F057
:1082400009F900BEFEE700BF00ED00E010A0000845
:108250002DE9F04182B004468846134B5E6B9F6B5C
:108260009D6A1B6B13F0020F0DD00F4BDB6A002BC6
:1082700009DA4BF6AB6100F063FE20B14FF000422B
:10828000094BDA620CE0094800F0B8FECDF8008036
:108290003B4632462946204601F0DCF800BEFEE7A8
:1082A00002B0BDE8F08100BF00ED00E01CA00008B6
:1082B00000B583B000F058FE304B314A1360314AAC
:1082C000136031490CE00A684B6801F10C048868BE
:1082D00003E011681960043304329842F9D821464A
:1082E0002A4B9942EFD3264B1A68294B9A4204D164
:1082F000244B1A68274B9A4200D0FEE71F4B264AB0
:108300001360264A1360264B0AE0194651F8082BE1
:108310005B6802E00020106004329A42FAD30B46F8
:10832000204A9342F1D31C4B1B6813B91B4B1B68AB
:1083300003B1FEE700F014FE694601A800F056FE06
:10834000194C1A4B1C1BA410002504E0164B53F8C3
:10835000253098470135AC42F8DC154C154B1C1BF9
:10836000A410002504E0124B53F82530984701353E
:10837000AC42F8DC0099019801F04AF8BABADECABA
:108380000000002074000020CC830008E483000873
:108390007856341232547698780000207C01002000
:1083A000E4830008F4830008F4830008F4830008E1
:1083B000F4830008F483000808B5FFF779FF000094
:0C83C000E98100081D82000851820008BD
:1083CC0078A00008000000207800002078A00008A9
:1083DC000000001000000010780000208001002038
:0883EC00000000100000001069
:108400000A4681B103680A498B4208D0094A93425F
:108410000BD0A2F55042934207D001207047064B83
:108420001A6000207047022070470020704700BF8C
:108430000010014000140140600100200346D0B14B
:1084400000205862D962DA611A680C498A4208D061
:108450000B4B9A4209D0A3F550439A4205D0012014
:1084600004E008490B60002000E00020D36843F0DE
:108470002003D36070470220704700BF0010014006
:10848000001401405401002000285CD030B40446A0
:1084900090F83030012B58D1002380F8303000683C
:1084A000C36823F4405222F00C0261682369194327
:1084B000A3680B43134343F40043C36021680B6973
:1084C00023F44052E36813430B612068204B984229
:1084D00003D0A3F58063984214D16269D2001D4B8A
:1084E000B3FBF2F51C49B1FBF2F2642303FB152246
:1084F000D200B2FBF3F3013303F0070343EA0513A1
:10850000836016E0154B984213D16269D200114B7B
:10851000B3FBF2F51049B1FBF2F2642303FB152221
:108520001201B2FBF3F3013303F0070343EA05132F
:1085300083602268D36843F40053D360012384F836
:108540003030002002E002207047032030BC70472A
:10855000001401400024F40000105E5F004400405D
:10856000034602681068002151601A68136823F0FE
:1085700040031360704700BF38B51F4B1A6813687B
:108580001C68DD6814F0400F18D015F0400F15D0AE
:10859000116A906981420BD1012182F83010DA68AA
:1085A00022F04002DA60144B1868FFF7D9FF05E0AB
:1085B000906A415C5960136A0133136214F0200F12
:1085C00018D015F0200F15D00B4B1B68D96A5A6ACA
:1085D0001868406888545A6A01325A62D9698A42D6
:1085E00008D11A68D36823F02003D360034B1B68BB
:1085F00003B1984738BD00BF54010020600100203E
:1086000008B5024B1B6803B1984708BD6401002000
:1086100008B1014B1860704764010020024A1368DA
:1086200043F001031360704710E000E04FF47A5309
:1086300003FB00F0C008B0F1807F01D36FF07F40F2
:10864000014B5860704700BF10E000E0044B1A680F
:1086500022F004021A601A6842F002021A6070479F
:1086600010E000E00122014B1A7070476D010020FC
:1086700008B5FFF7EBFF0348FFF7CAFF0520FFF738
:10868000D5FF08BD65860008014A024B1A60704795
:108690000400FA050CED00E020F0404310F04040EB
:1086A00005D111490A6B13430B630C207047B0F1DD
:1086B000804F05D10C494A6B13434B630C20704724
:1086C000B0F1004F05D108490A6C13430B640C202C
:1086D0007047B0F1404F05D103494A6C13434B64D6
:1086E0000C2070470920704700380240F0280AD853
:1086F000420900F01F00012303FA00F0034B43F886
:108700002200032070470120704700BF00E100E015
:1087100070B4039E00284DD00446002A4CD0056852
:10872000286840F4807028603046013804D02568FD
:108730006D6915F0010FF8D02068456915F0010F3B
:108740003CD001F0FE01016131462068456915F019
:10875000020F01D10139F8D1416911F0020F2FD078
:108760008169002510E02168505D086131460139BA
:1087700004D02068406910F0800FF8D02168496962
:1087800011F0800F04D001359D42ECD3002000E0B1
:108790000120013E04D023685B6913F0040FF8D078
:1087A00023685A6912F0040F0CD01A6842F4007260
:1087B0001A6008E0022006E0022004E0012002E046
:1087C000012000E0012070BC704700BF034640B3A9
:1087D00001680A6822F001020A60026810215160F3
:1087E00001688068104A904201D8112200E00522F9
:1087F0000A6218689A6851000C4AB2FBF1F2C2F39F
:108800000B01032900D80422C26119685A6842F496
:1088100080428A601A68136843F0010313600020E5
:1088200070470220704700BFA08601000024F400BA
:10883000044B1B5C022B02D10121024A1154184641
:10884000704700BF480100200F291BD810B407292A
:108850000BD8046A89000F238B4024EA030302FA31
:1088600001F11943016203200EE0446A08398900CE
:108870000F238B4024EA030302FA01F119434162FA
:10888000032001E00120704710BC704750B15AB17D
:108890000F290BD8036923FA01F101F001011170CE
:1088A0000320704700207047002070470120704768
:1088B00030B583B000243CE02546204B03EBC401D7
:1088C00001AA2244097953F83400FFF7DFFF02AB15
:1088D000234413F8043C1A4A125D934204D1194907
:1088E0000A5D01320A5502E00021164A1155154A67
:1088F000525D052A19D1144A525D52B90F4901EB54
:10890000C50189795940012903D102210E4A5155E7
:1089100008E0022A06D0094A02EBC50292795A40C1
:1089200009494A550021074A5155054A5355013412
:10893000E4B2002CC0D003B030BD00BF2CA00008B2
:1089400058010020380100204801002090B10F2973
:1089500012D8012A12D832B1012A11D102FA01F13A
:108960008161032070471031012202FA01F1816117
:108970000320704700207047012070470220704795
:108980000320704700283DD030B4034605682968AD
:1089900082795200032000FA02F421EA04041979D2
:1089A000014001FA02F222432A601C6861689A7948
:1089B0000125954021EA05051979C1F3800101FAE5
:1089C00002F22A4361680A4362601D68E9689A7985
:1089D000520000FA02F421EA04041979C1F3C1013A
:1089E00001FA02F22243EA601D68AA6899794900F7
:1089F00000FA01F422EA04045A7902FA01F323434B
:108A0000AB6001E00020704730BC704710B582B009
:108A1000002416E00D4B53F83420009203EBC403FE
:108A20001A798DF806205B798DF8043000238DF8D3
:108A300005300122064B1A556846FFF7A3FF0134A3
:108A4000E4B2002CE6D002B010BD00BF2CA000089C
:108A500048010020044A136923F44073184340F08E
:108A600001001061704700BF003C0240F8B51F468E
:108A700001F1774303F57C03234DAB423DD9234BF2
:108A8000DB6813F4803F3AD114463D460E46B0F5FC
:108A9000807F0FD001D838B117E0B0F5007F0FD03C
:108AA000B0F5407F14D010E0FFF7D4FFE4B234708B
:108AB00000200BE0FFF7CEFFA4B23480002005E0D9
:108AC000FFF7C8FF3460002000E00120322307E0F8
:108AD000FFF7C0FFC6E900450020F7E7013BDBB226
:108AE0000A4AD26812F4803F01D0002BF6D1074B1E
:108AF000DB6813F4803F04D1F8BD0120F8BD0120EC
:108B0000F8BD0120F8BD00BFFFFFFB77003C02402D
:108B1000052821D8134BDB6813F4803F1ED1114A7E
:108B2000136923F0780343EAC00343F4803343F02E
:108B300002031361322301E0013BDBB2094AD26830
:108B400012F4803F01D0002BF6D1064BDB6813F402
:108B5000803F05D1002070470120704701207047F9
:108B600001207047003C0240034B044A5A6002F166
:108B700088325A60704700BF003C024023016745BD
:108B8000704700BF704700BF704700BF704700BF0D
:108B9000704700BF704700BF704700BF704700BFFD
:108BA000704700BF704700BF704700BF704700BFED
:108BB000704700BF704700BF704700BF704700BFDD
:108BC000F0B585B002268DF80C601F4C0294092781
:108BD0008DF80E7001258DF80D5002A8FFF7D2FE1A
:108BE000072239462046FFF72FFE8DF804600094D7
:108BF0000A268DF806608DF805506846FFF7C2FE1C
:108C0000072231462046FFF71FFE104C4FF4165343
:108C100063610F4B23600C23636000232361E360D7
:108C2000A36084F830502046FFF72EFC2520FFF784
:108C30005DFD08492046FFF7E3FB2A46064920462A
:108C4000FFF7FCFB05B0F0BD000002400001002072
:108C5000001001401193000868010020024B1878B1
:108C600000221A70704700BF7C00002001E000BFA6
:108C70001846431E0028FAD1704700BF00B585B0E2
:108C80008DF80C008DF80D1042F210730093022342
:108C900003AA80210248FFF73BFD05B05DF804FB05
:108CA0003C01002000B585B0800006308DF808003A
:108CB0008DF80910090A8DF80A108DF80B20120A98
:108CC0008DF80C2042F210730093052302AA802134
:108CD0000448FFF71DFD4FF47A70FFF7C7FF05B09A
:108CE0005DF804FB3C01002008B501283BD10022BF
:108CF00005213C48FFF72AFE4FF4967200210846F2
:108D0000FFF7D0FF5F2200210A20FFF7CBFF782278
:108D100000210C20FFF7C6FF4FF4A07200210320B2
:108D2000FFF7C0FF822200210420FFF7BBFF5A2279
:108D300000210520FFF7B6FF4FF4967200210620B0
:108D4000FFF7B0FF822200210720FFF7ABFF4FF4AF
:108D5000C87200210820FFF7A5FF82220021092008
:108D6000FFF7A0FF08BD5A2200210846FFF79AFF2F
:108D70004FF4917200210A20FFF794FF4FF487729D
:108D800000210C20FFF78EFFB42200210320FFF703
:108D900089FF4FF4917200210420FFF783FF4FF405
:108DA000917200210520FFF77DFF6E220021062031
:108DB000FFF778FF4FF4917200210720FFF772FF51
:108DC000822200210820FFF76DFF4FF4B9720021C5
:108DD0000920FFF767FF012205210248FFF7B6FDD2
:108DE00008BD00BF0004024010B5FFF737FF04467E
:108DF0000020FFF71DFD022807D10C4B187880F0EA
:108E000001001870FFF770FF10BD4F2C05D1012035
:108E1000064B1870FFF768FF10BD432C04D10020EB
:108E2000024B1870FFF760FF10BD00BF500100201B
:108E300000B583B001238DF80430084A0092062261
:108E40008DF806208DF805306846FFF79BFD002061
:108E5000FFF74AFF03B05DF804FB00BF00040240C7
:108E6000224B9B6803F00C03042B07D0082B09D07E
:108E7000002B2DD11E4A1F4B1A602CE01E4A1D4BA1
:108E80001A6028E0194B5A685B6803F03F0312F43C
:108E9000800F09D0184AB2FBF3F3144A5268C2F3A8
:108EA000881202FB03F308E0114AB2FBF3F30F4A06
:108EB0005268C2F3881202FB03F30C4A5268C2F3F1
:108EC000014201325200B3FBF2F30A4A136002E09E
:108ED000074A084B1A60054B9B68C3F30313074A04
:108EE000D15C044A1368CB401360704700380240DD
:108EF0000024F4000C00002040787D01A89E0008AA
:108F00000C4B1A6842F001021A60002199601A683D
:108F100022F0847222F480321A60074A5A601A687A
:108F200022F480221A60D9604FF00062034B9A60ED
:108F3000704700BF003802401030002400ED00E010
:108F400083691A888A4207D10268033A012A05D840
:108F50000233836101207047002070470020704772
:108F600008B5FFF77DFF08BD08B5FFF7C9FF024B45
:108F7000024A9A6008BD00BF00ED00E000800008D2
:108F80002DE9F04385B004460F46435613BB042534
:108F900028462146ABBE04461FE03546102E28BFAA
:108FA0001025002306E014F9011B04AA1A4402F854
:108FB000101C0133AB42F6D304AA1344002203F879
:108FC000102CE9464FF0040840464946ABBE8046A7
:108FD000761B00E00E46002EDFD1384605B0BDE816
:108FE000F08300BF08B5FFF7CBFF08BD0123036086
:108FF000014B0B60704700BF040000200FB400B5A8
:1090000083B004AB53F8042B01938021064800F091
:10901000EDFA002803DD01460348FFF7E3FF03B044
:109020005DF804EB04B070478000002010B5114BD0
:109030001B682BB91048FFF7E1FF05220D4B1A60A2
:10904000002410E00D4B03EBC4035B68094A116870
:10905000B1FBF3F203FB12131BB9084B53F8343086
:1090600098470134E4B2012CECD9024A1368053365
:10907000136010BD4C010020B89E000834A0000809
:1090800008B5FFF7CBFA054B1B78012BFBD100226B
:10909000024B1A70FFF7CAFFF5E700BF6D01002011
:1090A000F0B583B000248DF80740002800F0E6807A
:1090B0000446002B00F0E4800025D8E09DF807006E
:1090C000C0B2052800F2D380DFE800F00327456E28
:1090D0008DAC2668306840F4806030602668306867
:1090E00040F4807030600898013804D026687669B2
:1090F00016F0010FF8D02068466916F0010F08D16C
:10910000056845F40075056006208DF80700012507
:10911000ADE001208DF80700A9E0206801F0FE060F
:1091200006610898013804D02668766916F0020FA7
:10913000F8D02068466916F0020F08D1056845F49A
:109140000075056006208DF8070001258FE00220DC
:109150008DF807008BE0206846698669089E013E0D
:1091600003D0476917F0800FF9D0466916F0800FD9
:1091700008D1056845F40075056006208DF80700E4
:10918000012574E002610898013804D026687669E8
:1091900016F0800FF8D02068406910F0800F65D07D
:1091A00003208DF8070062E02668306840F4807084
:1091B00030600898013804D02668766916F0010FEF
:1091C000F8D02068466916F0010F08D1056845F40B
:1091D0000075056006208DF80700012547E0042092
:1091E0008DF8070043E0266841F00100C0B230610D
:1091F0000898013804D02668766916F0020FF8D076
:109200002068466916F0020F08D1056845F400751C
:10921000056006208DF80700012528E005208DF85F
:10922000070024E02668306820F480603060206801
:1092300046698669066846F4007606600898013833
:1092400004D02668766916F0400FF8D02068466989
:1092500016F0400F04D106208DF80700012506E026
:109260000069187006208DF8070000E001259DF8C0
:109270000700C0B205287FF621AF02E0022500E01A
:1092800002250348FFF7BAFE284603B0F0BD00BF31
:10929000C49E000800B585B042F2107300930DF132
:1092A0000F03024680210448FFF7FAFE9DF80F00E5
:1092B00005B05DF804FB00BF3C01002038B500EBB1
:1092C000C0000A24B0FBF4F441F2D773B3FBF4F40A
:1092D000013CE4B20020FFF7DDFF054600F06F011E
:1092E00041F010010020FFF7C9FC2146FE20FFF7E6
:1092F000C5FC4FF47A7300E013465A1E002BFBD1D5
:1093000065F05F01C9B20020FFF7B8FC38BD00BFAF
:1093100008B5134B1B78102B10D11248FFF76EFEC7
:109320000120FFF7F5FB4FF0553200230E494FF4B3
:109330000070FFF79BFBFFF7A7F90AE04F2B03D163
:109340004F220A4B1A7004E0432B02D14322074BF1
:109350001A70012202490648FFF770F808BD00BFE5
:1093600068010020D09E00080C4000087C0000200E
:1093700000010020F0B585B00E258DF80C500827AF
:109380008DF80E701D4C029403268DF80D600DEBC8
:109390000700FFF7F7FA042239462046FFF754FA90
:1093A0008DF8045009258DF8065000948DF805605D
:1093B0006846FFF7E7FA042229462046FFF744FAF9
:1093C0000F48104B0360104B836000244460FFF78C
:1093D000FDF980212046FFF751FC4FF47A7300E03D
:1093E00013465A1E002BFBD10020FFF753FF014606
:1093F0000648FFF703FE05B0F0BD00BF00040240C1
:109400003C01002000540040801A0600E09E000845
:1094100008B5FFF7A9FB0120FFF73EF90B48FFF75E
:109420003BF90220FFF738F90948FFF735F9FFF754
:10943000C7FBFFF7FDFCFFF7E9FAFFF79BFF3220C0
:10944000FFF73CFFFFF714F9FFF71AFE000020803A
:10945000100000C0F8B504460D4617461E462648C3
:10946000FFF7CCFD21682548FFF7C8FD6168244857
:10947000FFF7C4FDA1682348FFF7C0FDE16822485B
:10948000FFF7BCFD21692148FFF7B8FD616920485D
:10949000FFF7B4FDA1691F48FFF7B0FDE1691E4861
:1094A000FFF7ACFD1D48FFF7A9FD29461C48FFF753
:1094B000A5FD1C4CE16A1C48FFF7A0FD216B1B4871
:1094C000FFF79CFDE16B1A48FFF798FD15F0800F40
:1094D00003D039461748FFF791FD15F4004F03D02C
:1094E00031461548FFF78AFD1448FFF787FD0699B6
:1094F0001348FFF783FDF8BDE49E0008F49E0008C2
:10950000049F0008149F0008249F0008349F00084F
:10951000449F0008549F0008649F0008749F00083F
:10952000809F000800ED00E0909F0008A09F0008C9
:10953000B09F0008C09F0008D09F0008E09F00086F
:10954000E89F000808B50D4B1B6813B90C4A0B4B7C
:109550001A600A4B1A68C31C23F003031344094919
:109560008B4206D900F010F80C2303604FF0FF3057
:1095700008BD02490B60104608BD00BF5C01002019
:109580008001002000FC0020014B1868704700BFDC
:109590007000002030B5141E05469BB0184604DA52
:1095A0008B232B604FF0FF301DE04FF40273ADF8BA
:1095B0000C3014BF04F1FF332346029305934FF69A
:1095C000FF7300910491ADF80E3002461E9B694670
:1095D000284600F073F8431CBCBF8B232B6014B1EA
:1095E000009B00221A701BB030BD000007B500932D
:1095F00013460A46014603480068FFF7CBFF03B055
:109600005DF804FB700000202DE9F0478E689E4253
:1096100082460C46914698463ED88A8912F4906F4D
:109620003AD0256809696F1A6569022305EB45057B
:1096300095FBF3F57B1C43449D4238BF1D46530503
:109640000FD5294600F090FB064698B13A462169AD
:1096500000F016FBA38923F4906343F08003A381F9
:1096600013E02A4600F0DEFB064670B92169504639
:1096700000F02CFB0C23CAF80030A38943F0400310
:10968000A3814FF0FF30BDE8F087266165613E445D
:10969000ED1B2660A5604646464528BF4646324635
:1096A0004946206800F0F7FAA3689B1BA360236873
:1096B0001E4426600020BDE8F08700002DE9F04F31
:1096C0009DB0804603938B891C060D4616460DD52A
:1096D0000B695BB9402100F047FB2860286118B98D
:1096E0000C23C8F80030CDE040236B6100230993C0
:1096F00020238DF82930DFF89CB130238DF82A30F3
:1097000037463C4614F8013B1BB9B7EB060910D0AD
:1097100003E0252BF9D02746F3E74B46324629468E
:109720004046FFF771FF013000F0A780099B4B44D2
:1097300009933B78002B00F0A08000234FF0FF320C
:1097400004930793059206938DF853301A930126DC
:10975000052221784E4800F043FA671C049B38B17B
:109760004B4A801A06FA00F0184304903C46EFE793
:10977000D90644BF20228DF853201A0744BF2B225C
:109780008DF8532022782A2A03D0079A00210A2034
:109790000BE0039A111D12680391002A10DA52425D
:1097A00043F00200079204900BE0274601343B7817
:1097B000303B092B03D800FB02320121F5E701B150
:1097C00007923B782E2B1ED17B782A2B0AD1039B44
:1097D0001A1D1B680392002BB8BF4FF0FF330237EE
:1097E000059310E000230593781C19460A240746C8
:1097F00001303A78303A092A03D804FB01210123C9
:10980000F5E703B1059103223978224800F0E8F921
:1098100040B14023CBEB000003FA00F0049B184357
:109820000490013739781C488DF8281006227E1CD8
:1098300000F0D6F988B1194B33B9039B073323F0F5
:1098400007030833039314E003AB00932A46144B39
:1098500004A94046AFF3008007E003AB00932A461B
:109860000F4B04A9404600F093F8B0F1FF3F824649
:1098700003D0099B5344099342E7AB895B0601D4AB
:10988000099801E04FF0FF301DB0BDE8F08F00BF38
:1098900044A000084AA000084EA0000800000000F4
:1098A000099600082DE9F04791461F460A698B6822
:1098B000DDF820809342B8BF1346C9F8003091F814
:1098C000432006460C4612B10133C9F80030236824
:1098D000990642BFD9F800300233C9F80030256834
:1098E00015F0060510D104F1190A07E001235246CC
:1098F00039463046C04701301AD00135E368D9F8FF
:1099000000209B1A9D42F1DB94F84330226800331B
:1099100018BF012392060FD5E1185A1C302081F898
:109920004300224494F8451082F84310023303E0C8
:109930004FF0FF30BDE8F08704F14302394630466E
:10994000C0470130F4D02268D9F80050E36802F033
:109950000602042A08BF5D1B2269A3680CBF25EA22
:10996000E57500259342C4BF9B1AED184FF000091E
:109970001A344D4509D00123224639463046C047A6
:109980000130D5D009F10109F3E70020BDE8F087E7
:109990002DE9F04317460A7E85B06E2A98460646A2
:1099A0000C460C9B01F1430E00F0AE8011D8632AE7
:1099B00022D009D8002A00F0BB80582A40F0CA8083
:1099C00081F84520834955E0642A1ED0692A1CD0BD
:1099D000C0E0732A00F0B08009D86F2A2ED0702A18
:1099E00040F0B8800A6842F020020A603EE0752A22
:1099F00024D0782A3AD0ADE01A6801F14205111D51
:109A00001960136884F84230A8E021681A6811F0E0
:109A1000800F02D0111D196008E011F0400F02F113
:109A20000401196002D0B2F9003000E01368002B85
:109A30003CDA2D225B4284F8432037E021681A6823
:109A400011F0800F02D0111D196007E011F0400FD6
:109A500002F10401196001D0138800E01368227E2E
:109A60005C496F2A14BF0A2208221BE078225A4957
:109A700084F845202268186812F0800F00F1040570
:109A80001D6003D1550601D5038800E00368D007A7
:109A900044BF42F0200222601BB9226822F020025B
:109AA00022601022002084F8430001E049490A2284
:109AB0006568A560002D08DB206820F004002060A8
:109AC0002BB9002D7DD175460CE0002B79D0754661
:109AD000B3FBF2F002FB1033CB5C05F8013D03460B
:109AE0000028F5D1082A0BD12368DA0708D52369A5
:109AF00062689A42DEBF302305F8013C05F1FF356C
:109B0000C5EB0E0323612EE008681A68496910F05E
:109B1000800F03D0101D1860136808E010F0400F8C
:109B200002F104001860136801D0198000E0196088
:109B300000232361754616E01A68111D1960156827
:109B400062680021284600F04BF808B1401B6060B5
:109B5000636804E004F1420584F842200123236194
:109B6000002384F84330CDF800803B4603AA214609
:109B70003046FFF797FE013002D14FF0FF3026E06C
:109B800023692A4639463046C0470130F5D023685C
:109B90009B0710D5002504F1190907E001234A4667
:109BA00039463046C0470130E7D00135E368039AB3
:109BB0009B1A9D42F2DBE068039B9842B8BF1846AF
:109BC00005E00B7884F8423004F142058AE705B0DD
:109BD000BDE8F08355A0000866A000080000000062
:109BE00001F0FF01102A2BDB10F0070F08D010F84E
:109BF000013B013A8B422DD010F0070F42B3F6D152
:109C0000F0B441EA012141EA014122F007047FF06A
:109C100000070023F0E80256083C85EA010586EAC1
:109C2000010685FA47F5A3FA87F586FA47F6A5FAFD
:109C300087F68EB9EED1F0BC01F0FF0102F0070209
:109C400032B110F8013B013A83EA010313B1F8D1B4
:109C50000020704701387047002D06BF3546033895
:109C6000073815F0010F07D1013015F4807F02BFCE
:109C7000013015F4C03F0130F0BC0138704700BF1F
:109C800010B5431E0A44914204D011F8014B03F869
:109C9000014FF8E710BD884210B501EB020301D86F
:109CA000421E0BE09842FBD28118D21AD34204D054
:109CB00013F8014D01F8014DF8E710BD994204D0A9
:109CC00011F8014B02F8014FF8E710BD38B5054611
:109CD000002946D051F8043C0C1F002BB8BFE418F3
:109CE00000F0D6F81F4A1368114613B96360146078
:109CF00032E0A3420ED92268A018834204BF18683C
:109D00005B68636004BF121822600C6024E0A2420A
:109D100003D813465A68002AF9D118681918A142C5
:109D20000BD12168014458188242196014D110687F
:109D300052685A60014419600EE002D90C232B606E
:109D40000AE021686018824204BF106852686260AD
:109D500004BF091821605C602846BDE8384000F067
:109D600098B838BD7401002070B5CD1C25F00305EE
:109D700008350C2D38BF0C25002D064601DBA94205
:109D800002D90C23336046E000F082F8234B1C68B4
:109D90001A462146A1B10B685B1B0ED40B2B03D9CD
:109DA0000B60CC18CD501EE08C420DBF63684B6831
:109DB0006360136018BF0C4615E00C464968E9E77C
:109DC000174C23681BB9304600F052F82060294632
:109DD000304600F04DF8431C18D0C41C24F0030496
:109DE000A0420DD12560304600F053F804F10B007D
:109DF000231D20F00700C31A0ED05A42E25070BD56
:109E0000211A304600F034F80130EBD10C233360D6
:109E1000304600F03EF8002070BD00BF7401002005
:109E200070010020F8B5074615460E4621B91146C7
:109E3000BDE8F840FFF798BF1AB9FFF747FF28467B
:109E4000F8BD00F027F885420ED929463846FFF7BD
:109E50008BFF044650B131462A46FFF711FF3146C9
:109E60003846FFF733FF01E03046F8BD2046F8BD25
:109E700038B5064C0023054608462360FFF762FB11
:109E8000431C02D1236803B12B6038BD7801002048
:109E90007047704751F8040C0028BEBF091851F8EC
:109EA000043CC018043870470000000000000000A7
:109EB000010203040607080974696D65203D20301E
:109EC00000000000456E64205265730A0000000027
:109ED00055706461746520526571200A00000000AD
:109EE00025640A00537461636B206672616D653A84
:109EF0000A000000205230203D2020253038580A2A
:109F000000000000205231203D2020253038580A22
:109F100000000000205232203D2020253038580A11
:109F200000000000205233203D2020253038580A00
:109F30000000000020523132203D20253038580AE0
:109F400000000000204C52203D2020253038580AC7
:109F500000000000205043203D2020253038580AC2
:109F60000000000020505352203D20253038580A70
:109F7000000000004653522F4641523A0A000000AA
:109F80002043465352203D2020253038580A0000F7
:109F90002048465352203D2020253038580A0000E2
:109FA0002044465352203D2020253038580A0000D6
:109FB0002041465352203D2020253038580A0000C9
:109FC000204D4D464152203D20253038580A000092
:109FD0002042464152203D2020253038580A0000BA
:109FE0004D6973630A000000204C522F4558435FAF
:109FF00052455455524E3D20253038580A00000035
:10A000005B55736167654661756C745D0A0000009D
:10A010005B4275734661756C745D0A005B486172E2
:10A02000644661756C745D0A000000000000024027
:10A0300000080000B188000805000000E98D000854
:10A0400014000000232D302B2000686C4C00656646
:10A050006745464700303132333435363738394179
:10A06000424344454600303132333435363738398F
:07A070006162636465660094
:10A078007856341234010020000000000024F40057
:10A0880000000000000000000000000000000000C8
:10A0980000000000000000000000000000000000B8
:10A0A80000000000000000000000000000000000A8
:10A0B8000000000000000000000000000000000098
:10A0C8000000000000000000000000000000000088
:10A0D8000000000000000000000000000000000078
:08A0E8001000002032547698AC
:04000005080082B1BC
:00000001FF
